:020000040000FA
:100000000A128A11F32FFF1B0D2883137F18831701
:100010000008840A0319FF0A080000308A00040857
:10002000840A8207003401340034003400340A3476
:100030000034003400346434003400340034E834D4
:100040000334003400341034273400340034A03436
:10005000863401340034403442340F340034803468
:100060009634983400340034E134F53405340034E7
:10007000CA349A343B3470346F3469346E34743417
:100080003C3470346F347334003470346F346934FA
:100090006E3474343E3470346F34733400345034FE
:1000A0004F345334203458343A34203400345034EC
:1000B0004F345334203459343A34203400345034DB
:1000C0004F34533420345A343A34203400344834D2
:1000D00045344C344C344F340034253438346C348B
:0800E000753400342A340034A9
:1002000064008001840A04060319003404060129ED
:1002100001300A128A11BF210A128A111430F40027
:100220007930F300F30B1229F40B12291729080077
:1002300023291A291B2900000130F0020030031C79
:10024000F103F102232970087104031D28292929CB
:1002500019292A290800F100F0013A307102031827
:10026000322933293C2930307102031C38293929BD
:100270003C29F001F00A3C29700C3E290800552960
:10028000740883120313FF00730884000A128A1192
:1002900003200A128A110A128A11F4210A128A1101
:1002A0000130F3070318F40A552974088312031365
:1002B000FF00730884000A128A1103200A128A11AF
:1002C000003A031D64296529402966290800F401C4
:1002D000F5016A29701C6D296E2974297208F407CA
:1002E0000318F50A7308F50701300310F20DF30D3A
:1002F000FF3E031D752901300310F10CF00CFF3E89
:10030000031D7C2970087104031D872988296A2927
:1003100089297508F1007408F0008E290800013061
:100320008316031386000D30F500AF30F400B630AD
:10033000F300F30B9929F40B9929F50B9929000087
:1003400002300A128A11BF210A128A1128300A12B9
:100350008A11BF210A128A1101300A128A11BF21A3
:100360000A128A110C300A128A11BF210A128A114C
:1003700006300A128A11BF210A128A110800F200FF
:10038000F0307205F0008312031306080F39700471
:10039000860086100615000083120313061107302D
:1003A000F1007D30F000F00BD329F10BD329720856
:1003B000F00004300310F00DFF3E031DDA29831214
:1003C000031306080F397004860006150000831217
:1003D000031306111430F1007930F000F00BEE2910
:1003E000F10BEE29F3290800F200F0307205F0005D
:1003F0008312031306080F3970048600861406154D
:1004000000008312031306110730F1007D30F00065
:10041000F00B082AF10B082A7208F00004300310D0
:10042000F00DFF3E031D0F2A8312031306080F3938
:1004300070048600061500008312031306111430A1
:10044000F1007930F000F00B232AF10B232A282A3F
:100450000800831203132308220421042004031933
:10046000322A332A7C2AA901A90A442A0130A80089
:100470000310A00DA10DA20DA30DA80B382A013069
:10048000A8002808A907442AA31F472A482A362A71
:100490004A2A4A2A23082702031D582A220826022C
:1004A000031D582A21082502031D582A200824026A
:1004B000031C5B2A5C2A6B2A2008A4022108031C67
:1004C000210FA5022208031C220FA6022308031CE9
:1004D000230FA7026B2A01300310A30CA20CA10C5E
:1004E000A00CFF3E031D6C2A0130A902031D792ACE
:1004F0007A2A4A2A7C2A7C2A2708A3002608A200F6
:100500002508A1002408A000852A0800F900FA01A6
:100510007903031D8C2A8D2A9A2A75080F39803891
:10052000F8007808FA007A080A128A11BF210A1224
:100530008A11E32A02307906031D9F2AA02AAD2AD8
:1005400075080F39C038F8007808FA007A080A12DE
:100550008A11BF210A128A11E32A03307906031D8A
:10056000B22AB32AC02A75080F399038F8007808E3
:10057000FA007A080A128A11BF210A128A11E32AA4
:1005800004307906031DC52AC62AD32A75080F39F7
:10059000D038F8007808FA007A080A128A11BF21C8
:1005A0000A128A11E32A75080F39C038F800780852
:1005B000FA007A080A128A11BF210A128A11E32A64
:1005C000E32AE32AE32A7608F3007708F4000A1204
:1005D0008A113F210A128A1108000030FC00003005
:1005E000FB000030FA000030F90073087204710457
:1005F00070040319FC2AFD2A502BFD01FD0A0E2B65
:100600000130F8000310F00DF10DF20DF30DF80BB1
:10061000022B0130F8007808FD070E2BF31F112B79
:10062000122B002B142B142B0130F8000310F90DA2
:10063000FA0DFB0DFC0DF80B162B73087702031D4A
:100640002B2B72087602031D2B2B71087502031DDC
:100650002B2B70087402031C2E2B2F2B3F2B7008A2
:10066000F4027108031C710FF5027208031C720F6B
:10067000F6027308031C730FF70279143F2B013045
:100680000310F30CF20CF10CF00CFF3E031D402B99
:100690000130FD02031D4D2B4E2B142B502B502BE4
:1006A0007C08F3007B08F2007A08F1007908F0007A
:1006B000592B0800F601F11F5E2B5F2B672BF00909
:1006C000F109F00A0319F10AF601F60A672BF31F84
:1006D0006A2B6B2B752BF209F309F20A0319F30A43
:1006E0000130F4007408F606752BF701F801700864
:1006F000710403197C2B7D2BBA2BF501F50A8C2B89
:1007000001300310F00DF10DFF3E031D812B013070
:10071000F4007408F5078C2BF11F8F2B902B802B86
:10072000922B922B01300310F70DF80DFF3E031DA5
:10073000932B71087302031D9F2B70087202031C18
:10074000A22BA32BAB2B7008F2027108031CF3033E
:10075000F3027714AB2B01300310F10CF00CFF3EC9
:10076000031DAC2B0130F502031DB72BB82B922BC8
:10077000BA2BBA2B76080319BE2BBF2BC52BF70952
:10078000F809F70A0319F80AC52B7808F100770869
:10079000F000CA2B0800003083120313BC000030A5
:1007A000BB000030BA000030B9002408A500A60143
:1007B0002508F0002608F100E830F2000330F300CD
:1007C0000A128A115A230A128A117108831203131A
:1007D000BE007008BD0029308400C230A5000408A6
:1007E000A6001030A7002508840083130008A80085
:1007F000A50A2608840028088000A60AA70BF32B68
:10080000831603132308803AFF008312031323087F
:10081000803A7F0283160313031D242C83120313D3
:100820002208831603132202031D242C83120313B0
:100830002108831603132102031D242C83120313A2
:1008400020088316031320020318272C282C372C8A
:10085000831203130811F5013330F6008030F700DE
:1008600001300A128A1186220A128A11B72C8312C9
:1008700003130815F5012930F6008030F700013028
:100880000A128A1186220A128A11B72CB72C8312F7
:10089000031385184C2C4D2C512C83160313AD01DA
:1008A000AD0A83120518552C562C5B2C83160313A6
:1008B000AC01AC0A5B2C831603132D080319612CC1
:1008C000622C6B2C83120313081D672C682C6B2C75
:1008D000DA2CDA2CB72C831603132C080319712C8D
:1008E000722C7B2C831203130819772C782C7B2C09
:1008F000DA2CDA2CB72C83123E08F1003D08F00008
:100900000A128A1118210A128A11831203138814F9
:10091000073083120313A500A50B8C2C0000831253
:10092000031388100819952C962CA72C01308316D8
:100930000313A007003003180130A107003003188B
:100940000130A207003003180130A307B72CFF3095
:1009500083160313A007FF30031CA107FF30031CFD
:10096000A207FF30031CA307B72CB72CB72C8312A8
:1009700003132308831603132306031DD52C8312A8
:1009800003132208831603132206031DD52C83129A
:1009900003132108831603132106031DD52C83128C
:1009A00003132008831603132006031DD82CD92C0B
:1009B000472CDA2C080044308400B2308312031331
:1009C000C0000408C1001030C20040088400831336
:1009D0000008C300C00A4108840043088000C10A1F
:1009E000C20BE52C0D3083120313C200AF30C100DF
:1009F000B530C000C00BFA2CC10BFA2CC20BFA2C7C
:100A0000012D831603178801831203138501FF301C
:100A100083160313850083160317890183160313B6
:100A2000960183120313880183160313880183122E
:100A30000313860101308316031386000A128A11FC
:100A40008F210A128A110A128A1108210A128A11A8
:100A5000F5015530F6008030F70001300A128A1196
:100A600086220A128A11F5013D30F6008030F70027
:100A700002300A128A1186220A128A11F5014530C3
:100A8000F6008030F70003300A128A1186220A121B
:100A90008A11F5014D30F6008030F70004300A125B
:100AA0008A1186220A128A115B3083120313C00056
:100AB0004008AA0083160313230883120313AE0011
:100AC00083160313220883120313AD008316031346
:100AD000210883120313AC0083160313200883122A
:100AE0000313AB0044300A128A1116260A128A1127
:100AF000073083120313C0004008F5004430F600AD
:100B00000030F70002300A128A1186220A128A1176
:100B100083120313C40185188E2D8F2D932D8316F8
:100B20000313AD01AD0A83120518972D982D9D2D45
:100B300083160313AC01AC0A9D2D00308312D7003D
:100B40000030D6000030D5000A30D4000030DB0081
:100B50000030DA000030D9000A30D8000030DF0061
:100B60000030DE000030DD000A30DC00B72D061852
:100B7000BA2DBB2DCD2D0030A3000030A2002730B0
:100B8000A1001030A0006430C0004008A4000A1288
:100B90008A11CB230A128A11CD2D831603132C0838
:100BA000031DD32DD42DDA2D2D080319D82DD92DC1
:100BB000EB2DDA2D0F3083120313C0004008F5002F
:100BC0006030F6008030F70002300A128A11862267
:100BD0000A128A11FC2D0F3083120313C000400843
:100BE000F5004330F6008030F70002300A128A1117
:100BF00086220A128A11FC2D83120313C401B72D19
:100C0000B72D022E1A3083120313C2005E30C100CA
:100C10006D30C000C00B0A2EC10B0A2EC20B0A2E6B
:100C2000112E022E022E0A128A110028831203139B
:100C3000BC002B30AF002F08BB00D72F25303F065C
:100C40000319232E242E302E3F08AF003C088400C9
:100C50002F08831380000130AF002F08BC07D72F67
:100C6000BD01BE01B4012A0884000A128A110D20B8
:100C70000A128A110A128A112B210A128A11031CE4
:100C8000422E432E922E83120313BD01BE01482E25
:100C90000A30F0000030F100831203133E08F30025
:100CA0003D08F2000A128A1167210A128A1171089E
:100CB00083120313BE007008BD002A0884000A12C4
:100CC0008A110D200A128A11D03EAF00FF3003189E
:100CD0000030B0002F08BD070318BE0A3008BE0759
:100CE0000130AF002F08AA072A0884000A128A11CF
:100CF0000D200A128A110A128A112B210A128A1156
:100D00000318832E842E482E922E922E922E922EEF
:100D1000EB2F3416922ED72FC030AF002F08B4041B
:100D2000B12EB12E013083120313AA07FF302A0718
:100D300084000A128A110D200A128A11BF00AF0026
:100D4000B0013008003A0319A62ED72F2F08003A19
:100D50000319EB2F6C3A0319892E193A03198C2EBB
:100D6000D72F341EB42EB52EC82E3B088400831313
:100D70000008B700840A0008B800840A0008B90017
:100D8000840A0008BA000430AF002F08BB07DB2E2E
:100D90003B08840083130008AF00840A0008B000F9
:100DA0002F08B7003008B800B901BA010230AF000F
:100DB0002F08BB07DB2EBF01BF0A0A303F06031D09
:100DC000E22EE32EE52E282F282F3F08AF0001301A
:100DD0000310AF0DFF3E031DE82E03102F0D013E43
:100DE00084000A128A110D200A128A11B0000A1218
:100DF0008A110D200A128A11B1000A128A110D20DF
:100E00000A128A11B2000A128A110D200A128A11DE
:100E1000B30033083A02031D172F32083902031DAD
:100E2000172F31083802031D172F30083702031817
:100E30001A2F1B2F1D2F282F282F0130AF002F080E
:100E4000BF070A303F06031D262F272FE52E282F28
:100E50003E08803A803C031D2F2F3D083F020318B7
:100E6000322F332F3F2F831203133F08AF00B001FF
:100E70002F08BD023008031CBE03BE02442F83129C
:100E80000313BD01BE01442F3D083E040319492F41
:100E90004A2F642F4B2F2030AF003C0884002F08CE
:100EA000831380000130AF002F08BC07FF30BD075F
:100EB0000318BE0AFF30BE073D083E04031D612F24
:100EC000622F4B2F642F642F3F08AF00B0012F0813
:100ED000B5003008B600C72F0030A3000030A200D4
:100EE0000030A1000A30A0003508AF000130031027
:100EF000AF0DFF3E031D772F03102F0D013E840021
:100F00000A128A110D200A128A11F0000A128A119F
:100F10000D200A128A11F1000A128A110D200A12FC
:100F20008A11F2000A128A110D200A128A11F300A6
:100F30003A08F7003908F6003808F5003708F400D9
:100F40000A128A11ED220A128A11730883120313FE
:100F5000A7007208A6007108A5007008A4000A1274
:100F60008A1129220A128A11831203132008303EA3
:100F7000B0003008BF003F08AF003C0884002F08D5
:100F8000831380000130AF002F08BC07C72FFF304C
:100F9000B5070318B60AFF30B607350A031DD42F6C
:100FA000360A031DD42FD52F6C2FD72FD72F013002
:100FB000AA07FF302A0784000A128A110D200A129C
:100FC0008A11AF002F08BF003F08031DE82FE92F4B
:100FD0001E2EEB2FEB2F831203133C088400831388
:100FE0008001F22F08008313A0308400D2300A124F
:100FF0008A1100210A128A1183010A128A11DB2C3C
:04400E00F1ECFFFFD3
:00000001FF
